{
  "contractName": "BancorFormula",
  "abi": [
    {
      "constant": true,
      "inputs": [],
      "name": "version",
      "outputs": [
        {
          "name": "",
          "type": "string"
        }
      ],
      "payable": false,
      "stateMutability": "view",
      "type": "function"
    },
    {
      "constant": true,
      "inputs": [
        {
          "name": "_supply",
          "type": "uint256"
        },
        {
          "name": "_connectorBalance",
          "type": "uint256"
        },
        {
          "name": "_connectorWeight",
          "type": "uint32"
        },
        {
          "name": "_depositAmount",
          "type": "uint256"
        }
      ],
      "name": "calculatePurchaseReturn",
      "outputs": [
        {
          "name": "",
          "type": "uint256"
        }
      ],
      "payable": false,
      "stateMutability": "view",
      "type": "function"
    },
    {
      "constant": true,
      "inputs": [
        {
          "name": "_supply",
          "type": "uint256"
        },
        {
          "name": "_connectorBalance",
          "type": "uint256"
        },
        {
          "name": "_connectorWeight",
          "type": "uint32"
        },
        {
          "name": "_sellAmount",
          "type": "uint256"
        }
      ],
      "name": "calculateSaleReturn",
      "outputs": [
        {
          "name": "",
          "type": "uint256"
        }
      ],
      "payable": false,
      "stateMutability": "view",
      "type": "function"
    }
  ],
  "bytecode": "0x60806040526040805190810160405280600381526020017f302e330000000000000000000000000000000000000000000000000000000000815250600090805190602001906200005192919062000f96565b506040805190810160405280600381526020017f302e330000000000000000000000000000000000000000000000000000000000815250608190805190602001906200009f92919062000f96565b50701c35fedd14ffffffffffffffffffffffff60016020608081101515620000c357fe5b0181905550701b0ce43b323fffffffffffffffffffffff60016021608081101515620000eb57fe5b01819055507019f0028ec1ffffffffffffffffffffffff600160226080811015156200011357fe5b01819055507018ded91f0e7fffffffffffffffffffffff600160236080811015156200013b57fe5b01819055507017d8ec7f0417ffffffffffffffffffffff600160246080811015156200016357fe5b01819055507016ddc6556cdbffffffffffffffffffffff600160256080811015156200018b57fe5b01819055507015ecf52776a1ffffffffffffffffffffff60016026608081101515620001b357fe5b01819055507015060c256cb2ffffffffffffffffffffff60016027608081101515620001db57fe5b0181905550701428a2f98d72ffffffffffffffffffffff600160286080811015156200020357fe5b01819055507013545598e5c23fffffffffffffffffffff600160296080811015156200022b57fe5b0181905550701288c4161ce1dfffffffffffffffffffff6001602a6080811015156200025357fe5b01819055507011c592761c666fffffffffffffffffffff6001602b6080811015156200027b57fe5b018190555070110a688680a757ffffffffffffffffffff6001602c608081101515620002a357fe5b0181905550701056f1b5bedf77ffffffffffffffffffff6001602d608081101515620002cb57fe5b0181905550700faadceceeff8bffffffffffffffffffff6001602e608081101515620002f357fe5b0181905550700f05dc6b27edadffffffffffffffffffff6001602f6080811015156200031b57fe5b0181905550700e67a5a25da4107fffffffffffffffffff600160306080811015156200034357fe5b0181905550700dcff115b14eedffffffffffffffffffff600160316080811015156200036b57fe5b0181905550700d3e7a392431239fffffffffffffffffff600160326080811015156200039357fe5b0181905550700cb2ff529eb71e4fffffffffffffffffff60016033608081101515620003bb57fe5b0181905550700c2d415c3db974afffffffffffffffffff60016034608081101515620003e357fe5b0181905550700bad03e7d883f69bffffffffffffffffff600160356080811015156200040b57fe5b0181905550700b320d03b2c343d5ffffffffffffffffff600160366080811015156200043357fe5b0181905550700abc25204e02828dffffffffffffffffff600160376080811015156200045b57fe5b0181905550700a4b16f74ee4bb207fffffffffffffffff600160386080811015156200048357fe5b01819055507009deaf736ac1f569ffffffffffffffffff60016039608081101515620004ab57fe5b0181905550700976bd9952c7aa957fffffffffffffffff6001603a608081101515620004d357fe5b01819055507009131271922eaa606fffffffffffffffff6001603b608081101515620004fb57fe5b01819055507008b380f3558668c46fffffffffffffffff6001603c6080811015156200052357fe5b0181905550700857ddf0117efa215bffffffffffffffff6001603d6080811015156200054b57fe5b01819055507007ffffffffffffffffffffffffffffffff6001603e6080811015156200057357fe5b01819055507007abbf6f6abb9d087fffffffffffffffff6001603f6080811015156200059b57fe5b018190555070075af62cbac95f7dfa7fffffffffffffff60016040608081101515620005c357fe5b018190555070070d7fb7452e187ac13fffffffffffffff60016041608081101515620005eb57fe5b01819055507006c3390ecc8af379295fffffffffffffff600160426080811015156200061357fe5b018190555070067c00a3b07ffc01fd6fffffffffffffff600160436080811015156200063b57fe5b0181905550700637b647c39cbb9d3d27ffffffffffffff600160446080811015156200066357fe5b01819055507005f63b1fc104dbd39587ffffffffffffff600160456080811015156200068b57fe5b01819055507005b771955b36e12f7235ffffffffffffff60016046608081101515620006b357fe5b018190555070057b3d49dda84556d6f6ffffffffffffff60016047608081101515620006db57fe5b018190555070054183095b2c8ececf30ffffffffffffff600160486080811015156200070357fe5b018190555070050a28be635ca2b888f77fffffffffffff600160496080811015156200072b57fe5b01819055507004d5156639708c9db33c3fffffffffffff6001604a6080811015156200075357fe5b01819055507004a23105873875bd52dfdfffffffffffff6001604b6080811015156200077b57fe5b0181905550700471649d87199aa990756fffffffffffff6001604c608081101515620007a357fe5b01819055507004429a21a029d4c1457cfbffffffffffff6001604d608081101515620007cb57fe5b0181905550700415bc6d6fb7dd71af2cb3ffffffffffff6001604e608081101515620007f357fe5b01819055507003eab73b3bbfe282243ce1ffffffffffff6001604f6080811015156200081b57fe5b01819055507003c1771ac9fb6b4c18e229ffffffffffff600160506080811015156200084357fe5b0181905550700399e96897690418f785257fffffffffff600160516080811015156200086b57fe5b0181905550700373fc456c53bb779bf0ea9fffffffffff600160526080811015156200089357fe5b018190555070034f9e8e490c48e67e6ab8bfffffffffff60016053608081101515620008bb57fe5b018190555070032cbfd4a7adc790560b3337ffffffffff60016054608081101515620008e357fe5b018190555070030b50570f6e5d2acca94613ffffffffff600160556080811015156200090b57fe5b01819055507002eb40f9f620fda6b56c2861ffffffffff600160566080811015156200093357fe5b01819055507002cc8340ecb0d0f520a6af58ffffffffff600160576080811015156200095b57fe5b01819055507002af09481380a0a35cf1ba02ffffffffff600160586080811015156200098357fe5b0181905550700292c5bdd3b92ec810287b1b3fffffffff60016059608081101515620009ab57fe5b0181905550700277abdcdab07d5a77ac6d6b9fffffffff6001605a608081101515620009d357fe5b018190555070025daf6654b1eaa55fd64df5efffffffff6001605b608081101515620009fb57fe5b0181905550700244c49c648baa98192dce88b7ffffffff6001605c60808110151562000a2357fe5b018190555070022ce03cd5619a311b2471268bffffffff6001605d60808110151562000a4b57fe5b0181905550700215f77c045fbe885654a44a0fffffffff6001605e60808110151562000a7357fe5b01819055507001ffffffffffffffffffffffffffffffff6001605f60808110151562000a9b57fe5b01819055507001eaefdbdaaee7421fc4d3ede5ffffffff6001606060808110151562000ac357fe5b01819055507001d6bd8b2eb257df7e8ca57b09bfffffff6001606160808110151562000aeb57fe5b01819055507001c35fedd14b861eb0443f7f133fffffff6001606260808110151562000b1357fe5b01819055507001b0ce43b322bcde4a56e8ada5afffffff6001606360808110151562000b3b57fe5b018190555070019f0028ec1fff007f5a195a39dfffffff6001606460808110151562000b6357fe5b018190555070018ded91f0e72ee74f49b15ba527ffffff6001606560808110151562000b8b57fe5b018190555070017d8ec7f04136f4e5615fd41a63ffffff6001606660808110151562000bb357fe5b018190555070016ddc6556cdb84bdc8d12d22e6fffffff6001606760808110151562000bdb57fe5b018190555070015ecf52776a1155b5bd8395814f7fffff6001606860808110151562000c0357fe5b018190555070015060c256cb23b3b3cc3754cf40ffffff6001606960808110151562000c2b57fe5b01819055507001428a2f98d728ae223ddab715be3fffff6001606a60808110151562000c5357fe5b018190555070013545598e5c23276ccf0ede68034fffff6001606b60808110151562000c7b57fe5b01819055507001288c4161ce1d6f54b7f61081194fffff6001606c60808110151562000ca357fe5b018190555070011c592761c666aa641d5a01a40f17ffff6001606d60808110151562000ccb57fe5b0181905550700110a688680a7530515f3e6e6cfdcdffff6001606e60808110151562000cf357fe5b01819055507001056f1b5bedf75c6bcb2ce8aed428ffff6001606f60808110151562000d1b57fe5b01819055506ffaadceceeff8a0890f3875f008277fff6001607060808110151562000d4257fe5b01819055506ff05dc6b27edad306388a600f6ba0bfff6001607160808110151562000d6957fe5b01819055506fe67a5a25da41063de1495d5b18cdbfff6001607260808110151562000d9057fe5b01819055506fdcff115b14eedde6fc3aa5353f2e4fff6001607360808110151562000db757fe5b01819055506fd3e7a3924312399f9aae2e0f868f8fff6001607460808110151562000dde57fe5b01819055506fcb2ff529eb71e41582cccd5a1ee26fff6001607560808110151562000e0557fe5b01819055506fc2d415c3db974ab32a51840c0b67edff6001607660808110151562000e2c57fe5b01819055506fbad03e7d883f69ad5b0a186184e06bff6001607760808110151562000e5357fe5b01819055506fb320d03b2c343d4829abd6075f0cc5ff6001607860808110151562000e7a57fe5b01819055506fabc25204e02828d73c6e80bcdb1a95bf6001607960808110151562000ea157fe5b01819055506fa4b16f74ee4bb2040a1ec6c15fbbf2df6001607a60808110151562000ec857fe5b01819055506f9deaf736ac1f569deb1b5ae3f36c130f6001607b60808110151562000eef57fe5b01819055506f976bd9952c7aa957f5937d790ef650376001607c60808110151562000f1657fe5b01819055506f9131271922eaa6064b73a22d0bd4f2bf6001607d60808110151562000f3d57fe5b01819055506f8b380f3558668c46c91c49a2f8e967b96001607e60808110151562000f6457fe5b01819055506f857ddf0117efa215952912839f6473e66001607f60808110151562000f8b57fe5b018190555062001045565b828054600181600116156101000203166002900490600052602060002090601f016020900481019282601f1062000fd957805160ff19168380011785556200100a565b828001600101855582156200100a579182015b828111156200100957825182559160200191906001019062000fec565b5b5090506200101991906200101d565b5090565b6200104291905b808211156200103e57600081600090555060010162001024565b5090565b90565b610c7280620010556000396000f300608060405260043610610057576000357c0100000000000000000000000000000000000000000000000000000000900463ffffffff16806329a00e7c1461005c57806349f9b0f7146100c157806354fd4d5014610126575b600080fd5b34801561006857600080fd5b506100ab6004803603810190808035906020019092919080359060200190929190803563ffffffff169060200190929190803590602001909291905050506101b6565b6040518082815260200191505060405180910390f35b3480156100cd57600080fd5b506101106004803603810190808035906020019092919080359060200190929190803563ffffffff169060200190929190803590602001909291905050506102b7565b6040518082815260200191505060405180910390f35b34801561013257600080fd5b5061013b6103eb565b6040518080602001828103825283818151815260200191508051906020019080838360005b8381101561017b578082015181840152602081019050610160565b50505050905090810190601f1680156101a85780820380516001836020036101000a031916815260200191505b509250505060405180910390f35b600080600080600080891180156101cd5750600088115b80156101df575060008763ffffffff16115b80156101fa5750620f424063ffffffff168763ffffffff1611155b151561020557600080fd5b600086141561021757600094506102ab565b620f424063ffffffff168763ffffffff16141561025a5761025388610245888c61048990919063ffffffff16565b6104c190919063ffffffff16565b94506102ab565b61026d88876104d790919063ffffffff16565b915061027e828989620f42406104f3565b80945081955050508260ff1661029d858b61048990919063ffffffff16565b9060020a9004905088810394505b50505050949350505050565b60008060008060008060008a1180156102d05750600089115b80156102e2575060008863ffffffff16115b80156102fd5750620f424063ffffffff168863ffffffff1611155b80156103095750898711155b151561031457600080fd5b600087141561032657600095506103de565b89871415610336578895506103de565b620f424063ffffffff168863ffffffff161415610379576103728a610364898c61048990919063ffffffff16565b6104c190919063ffffffff16565b95506103de565b868a03925061038d8a84620f42408b6104f3565b80955081965050506103a8858a61048990919063ffffffff16565b91508360ff16899060020a0290506103db856103cd838561055090919063ffffffff16565b6104c190919063ffffffff16565b95505b5050505050949350505050565b60818054600181600116156101000203166002900480601f0160208091040260200160405190810160405280929190818152602001828054600181600116156101000203166002900480156104815780601f1061045657610100808354040283529160200191610481565b820191906000526020600020905b81548152906001019060200180831161046457829003601f168201915b505050505081565b60008083141561049c57600090506104bb565b81830290508183828115156104ad57fe5b041415156104b757fe5b8090505b92915050565b600081838115156104ce57fe5b04905092915050565b600081830190508281101515156104ea57fe5b80905092915050565b6000806000808463ffffffff168663ffffffff166105118a8a610569565b0281151561051b57fe5b049150610527826106d0565b905061054081607f0360ff16839060020a900482610790565b8193509350505094509492505050565b600082821115151561055e57fe5b818303905092915050565b60008060008060007001ffffffffffffffffffffffffffffffff871115151561058e57fe5b60009350856f8000000000000000000000000000000088028115156105af57fe5b04925070010000000000000000000000000000000083101515610618576105f06f80000000000000000000000000000000848115156105ea57fe5b04610bb4565b91508160ff16839060020a900492506f800000000000000000000000000000008260ff160293505b6f800000000000000000000000000000008311156106a657607f90505b60008160ff1611156106a5576f8000000000000000000000000000000083840281151561065e57fe5b04925070010000000000000000000000000000000083101515610699576001839060020a900492506001810360ff1660019060020a02840193505b80600190039050610635565b5b607a60ff166f02c5c85fdf473de6af278ece600fcbda85029060020a900494505050505092915050565b60008060008060209250607f91505b8160ff166001840160ff16101561073157600282840160ff1681151561070157fe5b0490508460018260ff1660808110151561071757fe5b01541015156107285780925061072c565b8091505b6106df565b8460018360ff1660808110151561074457fe5b015410151561075557819350610788565b8460018460ff1660808110151561076857fe5b015410151561077957829350610788565b6000151561078357fe5b600093505b505050919050565b6000806000849150600090508360ff168583029060020a900491506f03442c4e6074a82f1797f72ac00000008202810190508360ff168583029060020a900491506f0116b96f757c380fb287fd0e400000008202810190508360ff168583029060020a900491506e45ae5bdd5f0e03eca1ff43900000008202810190508360ff168583029060020a900491506e0defabf91302cd95b9ffda500000008202810190508360ff168583029060020a900491506e02529ca9832b22439efff9b80000008202810190508360ff168583029060020a900491506d54f1cf12bd04e516b6da880000008202810190508360ff168583029060020a900491506d0a9e39e257a09ca2d6db510000008202810190508360ff168583029060020a900491506d012e066e7b839fa050c3090000008202810190508360ff168583029060020a900491506c1e33d7d926c329a1ad1a8000008202810190508360ff168583029060020a900491506c02bee513bdb4a6b19b5f8000008202810190508360ff168583029060020a900491506b3a9316fa79b88eccf2a000008202810190508360ff168583029060020a900491506b048177ebe1fa8123752000008202810190508360ff168583029060020a900491506a5263fe90242dcbacf000008202810190508360ff168583029060020a900491506a057e22099c030d941000008202810190508360ff168583029060020a900491506957e22099c030d94100008202810190508360ff168583029060020a9004915069052b6b545699763100008202810190508360ff168583029060020a90049150684985f67696bf7480008202810190508360ff168583029060020a900491506803dea12ea99e4980008202810190508360ff168583029060020a900491506731880f2214b6e0008202810190508360ff168583029060020a9004915067025bcff56eb360008202810190508360ff168583029060020a90049150661b722e10ab10008202810190508360ff168583029060020a900491506601317c700770008202810190508360ff168583029060020a90049150650cba84aafa008202810190508360ff168583029060020a900491506482573a0a008202810190508360ff168583029060020a900491506405035ad9008202810190508360ff168583029060020a90049150632f881b008202810190508360ff168583029060020a900491506301b293408202810190508360ff168583029060020a90049150620efc408202810190508360ff168583029060020a90049150617fe08202810190508360ff168583029060020a900491506104208202810190508360ff168583029060020a9004915060218202810190508360ff168583029060020a9004915060018202810190508360ff1660019060020a02856f0688589cc0e9505e2f2fee558000000083811515610ba757fe5b0401019250505092915050565b60008060008060009250849150610100821015610bf0575b6001821115610beb576001829060020a90049150600183019250610bcc565b610c3b565b608090505b60008160ff161115610c3a578060ff1660019060020a0282101515610c27578060ff16829060020a9004915080831792505b60018160ff169060020a90049050610bf5565b5b8293505050509190505600a165627a7a7230582041f72240f4fcde007300744b47723349ec7dd48f6850fa7cab380b9f048b84d90029",
  "source": "pragma solidity ^0.4.18;\nimport \"./Power.sol\";\nimport \"zeppelin-solidity/contracts/math/SafeMath.sol\";\n\n/**\n * Bancor formula by Bancor\n * https://github.com/bancorprotocol/contracts\n * Modified from the original by Slava Balasanov\n * Split Power.sol out from BancorFormula.sol and replace SafeMath formulas with zeppelin's SafeMath\n * Licensed to the Apache Software Foundation (ASF) under one or more contributor license agreements;\n * and to You under the Apache License, Version 2.0. \"\n */\ncontract BancorFormula is Power {\n  using SafeMath for uint256;\n\n  string public version = \"0.3\";\n  uint32 private constant MAX_WEIGHT = 1000000;\n\n  /**\n    @dev given a token supply, connector balance, weight and a deposit amount (in the connector token),\n    calculates the return for a given conversion (in the main token)\n\n    Formula:\n    Return = _supply * ((1 + _depositAmount / _connectorBalance) ^ (_connectorWeight / 1000000) - 1)\n\n    @param _supply              token total supply\n    @param _connectorBalance    total connector balance\n    @param _connectorWeight     connector weight, represented in ppm, 1-1000000\n    @param _depositAmount       deposit amount, in connector token\n\n    @return purchase return amount\n  */\n  function calculatePurchaseReturn(uint256 _supply, uint256 _connectorBalance, uint32 _connectorWeight, uint256 _depositAmount) public view returns (uint256) {\n    // validate input\n    require(_supply > 0 && _connectorBalance > 0 && _connectorWeight > 0 && _connectorWeight <= MAX_WEIGHT);\n\n    // special case for 0 deposit amount\n    if (_depositAmount == 0)\n      return 0;\n\n    // special case if the weight = 100%\n    if (_connectorWeight == MAX_WEIGHT)\n      return _supply.mul(_depositAmount).div(_connectorBalance);\n\n    uint256 result;\n    uint8 precision;\n    uint256 baseN = _depositAmount.add(_connectorBalance);\n    (result, precision) = power(baseN, _connectorBalance, _connectorWeight, MAX_WEIGHT);\n    uint256 temp = _supply.mul(result) >> precision;\n    return temp - _supply;\n  }\n\n  /**\n    @dev given a token supply, connector balance, weight and a sell amount (in the main token),\n    calculates the return for a given conversion (in the connector token)\n\n    Formula:\n    Return = _connectorBalance * (1 - (1 - _sellAmount / _supply) ^ (1 / (_connectorWeight / 1000000)))\n\n    @param _supply              token total supply\n    @param _connectorBalance    total connector\n    @param _connectorWeight     constant connector Weight, represented in ppm, 1-1000000\n    @param _sellAmount          sell amount, in the token itself\n\n    @return sale return amount\n  */\n  function calculateSaleReturn(uint256 _supply, uint256 _connectorBalance, uint32 _connectorWeight, uint256 _sellAmount) public view returns (uint256) {\n    // validate input\n    require(_supply > 0 && _connectorBalance > 0 && _connectorWeight > 0 && _connectorWeight <= MAX_WEIGHT && _sellAmount <= _supply);\n\n    // special case for 0 sell amount\n    if (_sellAmount == 0)\n      return 0;\n\n    // special case for selling the entire supply\n    if (_sellAmount == _supply)\n      return _connectorBalance;\n\n    // special case if the weight = 100%\n    if (_connectorWeight == MAX_WEIGHT)\n      return _connectorBalance.mul(_sellAmount).div(_supply);\n\n    uint256 result;\n    uint8 precision;\n    uint256 baseD = _supply - _sellAmount;\n    (result, precision) = power(_supply, baseD, MAX_WEIGHT, _connectorWeight);\n    uint256 temp1 = _connectorBalance.mul(result);\n    uint256 temp2 = _connectorBalance << precision;\n    return temp1.sub(temp2).div(result);\n  }\n}\n",
  "sourcePath": "/home/dekan/github/wordup/tcr_factory/contracts/BancorFormula.sol",
  "compiler": {
    "name": "solc",
    "version": "0.4.24+commit.e67f0147.Emscripten.clang"
  },
  "schemaVersion": "2.0.1",
  "updatedAt": "2018-10-12T19:47:40.330Z"
}