{
  "contractName": "TcrFactory",
  "abi": [
    {
      "constant": true,
      "inputs": [
        {
          "name": "_supply",
          "type": "uint256"
        },
        {
          "name": "_connectorBalance",
          "type": "uint256"
        },
        {
          "name": "_connectorWeight",
          "type": "uint32"
        },
        {
          "name": "_depositAmount",
          "type": "uint256"
        }
      ],
      "name": "calculatePurchaseReturn",
      "outputs": [
        {
          "name": "",
          "type": "uint256"
        }
      ],
      "payable": false,
      "stateMutability": "view",
      "type": "function"
    },
    {
      "constant": true,
      "inputs": [
        {
          "name": "",
          "type": "uint256"
        }
      ],
      "name": "tcrKeys",
      "outputs": [
        {
          "name": "",
          "type": "bytes32"
        }
      ],
      "payable": false,
      "stateMutability": "view",
      "type": "function"
    },
    {
      "constant": true,
      "inputs": [
        {
          "name": "_supply",
          "type": "uint256"
        },
        {
          "name": "_connectorBalance",
          "type": "uint256"
        },
        {
          "name": "_connectorWeight",
          "type": "uint32"
        },
        {
          "name": "_sellAmount",
          "type": "uint256"
        }
      ],
      "name": "calculateSaleReturn",
      "outputs": [
        {
          "name": "",
          "type": "uint256"
        }
      ],
      "payable": false,
      "stateMutability": "view",
      "type": "function"
    },
    {
      "constant": true,
      "inputs": [],
      "name": "version",
      "outputs": [
        {
          "name": "",
          "type": "string"
        }
      ],
      "payable": false,
      "stateMutability": "view",
      "type": "function"
    },
    {
      "constant": false,
      "inputs": [],
      "name": "renounceOwnership",
      "outputs": [],
      "payable": false,
      "stateMutability": "nonpayable",
      "type": "function"
    },
    {
      "constant": true,
      "inputs": [],
      "name": "owner",
      "outputs": [
        {
          "name": "",
          "type": "address"
        }
      ],
      "payable": false,
      "stateMutability": "view",
      "type": "function"
    },
    {
      "constant": false,
      "inputs": [
        {
          "name": "_newOwner",
          "type": "address"
        }
      ],
      "name": "transferOwnership",
      "outputs": [],
      "payable": false,
      "stateMutability": "nonpayable",
      "type": "function"
    },
    {
      "constant": true,
      "inputs": [
        {
          "name": "",
          "type": "bytes32"
        }
      ],
      "name": "tcrs",
      "outputs": [
        {
          "name": "content",
          "type": "string"
        },
        {
          "name": "reserveRatio",
          "type": "uint32"
        },
        {
          "name": "poolBalance",
          "type": "uint256"
        },
        {
          "name": "totalSharesSupply",
          "type": "uint256"
        },
        {
          "name": "ERC20token",
          "type": "address"
        }
      ],
      "payable": false,
      "stateMutability": "view",
      "type": "function"
    },
    {
      "payable": true,
      "stateMutability": "payable",
      "type": "fallback"
    },
    {
      "anonymous": false,
      "inputs": [
        {
          "indexed": false,
          "name": "hashId",
          "type": "bytes32"
        },
        {
          "indexed": false,
          "name": "amountMinted",
          "type": "uint256"
        },
        {
          "indexed": false,
          "name": "totalCost",
          "type": "uint256"
        }
      ],
      "name": "LogMint",
      "type": "event"
    },
    {
      "anonymous": false,
      "inputs": [
        {
          "indexed": false,
          "name": "hashId",
          "type": "bytes32"
        },
        {
          "indexed": false,
          "name": "amountWithdrawn",
          "type": "uint256"
        },
        {
          "indexed": false,
          "name": "reward",
          "type": "uint256"
        }
      ],
      "name": "LogWithdraw",
      "type": "event"
    },
    {
      "anonymous": false,
      "inputs": [
        {
          "indexed": false,
          "name": "hashId",
          "type": "bytes32"
        },
        {
          "indexed": false,
          "name": "logString",
          "type": "string"
        },
        {
          "indexed": false,
          "name": "value",
          "type": "uint256"
        }
      ],
      "name": "LogBondingCurve",
      "type": "event"
    },
    {
      "anonymous": false,
      "inputs": [
        {
          "indexed": false,
          "name": "hashId",
          "type": "bytes32"
        },
        {
          "indexed": false,
          "name": "content",
          "type": "string"
        },
        {
          "indexed": false,
          "name": "ratio",
          "type": "uint32"
        },
        {
          "indexed": false,
          "name": "erc20",
          "type": "address"
        },
        {
          "indexed": false,
          "name": "startingBalance",
          "type": "uint32"
        }
      ],
      "name": "TcrCreated",
      "type": "event"
    },
    {
      "anonymous": false,
      "inputs": [
        {
          "indexed": true,
          "name": "previousOwner",
          "type": "address"
        }
      ],
      "name": "OwnershipRenounced",
      "type": "event"
    },
    {
      "anonymous": false,
      "inputs": [
        {
          "indexed": true,
          "name": "previousOwner",
          "type": "address"
        },
        {
          "indexed": true,
          "name": "newOwner",
          "type": "address"
        }
      ],
      "name": "OwnershipTransferred",
      "type": "event"
    },
    {
      "constant": false,
      "inputs": [
        {
          "name": "content",
          "type": "string"
        },
        {
          "name": "ratio",
          "type": "uint32"
        },
        {
          "name": "erc20",
          "type": "address"
        },
        {
          "name": "startingBalance",
          "type": "uint32"
        }
      ],
      "name": "createTCR",
      "outputs": [],
      "payable": false,
      "stateMutability": "nonpayable",
      "type": "function"
    },
    {
      "constant": false,
      "inputs": [
        {
          "name": "hashId",
          "type": "bytes32"
        },
        {
          "name": "ercBuyAmount",
          "type": "uint256"
        }
      ],
      "name": "buy",
      "outputs": [
        {
          "name": "",
          "type": "bool"
        }
      ],
      "payable": false,
      "stateMutability": "nonpayable",
      "type": "function"
    },
    {
      "constant": false,
      "inputs": [
        {
          "name": "hashId",
          "type": "bytes32"
        },
        {
          "name": "sellSharesAmount",
          "type": "uint256"
        }
      ],
      "name": "sell",
      "outputs": [
        {
          "name": "",
          "type": "bool"
        }
      ],
      "payable": false,
      "stateMutability": "nonpayable",
      "type": "function"
    },
    {
      "constant": true,
      "inputs": [
        {
          "name": "content",
          "type": "string"
        },
        {
          "name": "reserveRatio",
          "type": "uint32"
        },
        {
          "name": "ERC20token",
          "type": "address"
        }
      ],
      "name": "getHashId",
      "outputs": [
        {
          "name": "hash",
          "type": "bytes32"
        }
      ],
      "payable": false,
      "stateMutability": "pure",
      "type": "function"
    },
    {
      "constant": true,
      "inputs": [
        {
          "name": "hashId",
          "type": "bytes32"
        }
      ],
      "name": "getContent",
      "outputs": [
        {
          "name": "content",
          "type": "string"
        }
      ],
      "payable": false,
      "stateMutability": "view",
      "type": "function"
    },
    {
      "constant": true,
      "inputs": [],
      "name": "getKeys",
      "outputs": [
        {
          "name": "",
          "type": "bytes32[]"
        }
      ],
      "payable": false,
      "stateMutability": "view",
      "type": "function"
    },
    {
      "constant": true,
      "inputs": [],
      "name": "getTcrCount",
      "outputs": [
        {
          "name": "tcrCount",
          "type": "uint256"
        }
      ],
      "payable": false,
      "stateMutability": "view",
      "type": "function"
    },
    {
      "constant": false,
      "inputs": [
        {
          "name": "m",
          "type": "bytes"
        }
      ],
      "name": "hello",
      "outputs": [],
      "payable": false,
      "stateMutability": "nonpayable",
      "type": "function"
    }
  ],
  "bytecode": "0x60806040526040805190810160405280600381526020017f302e330000000000000000000000000000000000000000000000000000000000815250600090805190602001906200005192919062000fd7565b506040805190810160405280600381526020017f302e330000000000000000000000000000000000000000000000000000000000815250608190805190602001906200009f92919062000fd7565b50701c35fedd14ffffffffffffffffffffffff60016020608081101515620000c357fe5b0181905550701b0ce43b323fffffffffffffffffffffff60016021608081101515620000eb57fe5b01819055507019f0028ec1ffffffffffffffffffffffff600160226080811015156200011357fe5b01819055507018ded91f0e7fffffffffffffffffffffff600160236080811015156200013b57fe5b01819055507017d8ec7f0417ffffffffffffffffffffff600160246080811015156200016357fe5b01819055507016ddc6556cdbffffffffffffffffffffff600160256080811015156200018b57fe5b01819055507015ecf52776a1ffffffffffffffffffffff60016026608081101515620001b357fe5b01819055507015060c256cb2ffffffffffffffffffffff60016027608081101515620001db57fe5b0181905550701428a2f98d72ffffffffffffffffffffff600160286080811015156200020357fe5b01819055507013545598e5c23fffffffffffffffffffff600160296080811015156200022b57fe5b0181905550701288c4161ce1dfffffffffffffffffffff6001602a6080811015156200025357fe5b01819055507011c592761c666fffffffffffffffffffff6001602b6080811015156200027b57fe5b018190555070110a688680a757ffffffffffffffffffff6001602c608081101515620002a357fe5b0181905550701056f1b5bedf77ffffffffffffffffffff6001602d608081101515620002cb57fe5b0181905550700faadceceeff8bffffffffffffffffffff6001602e608081101515620002f357fe5b0181905550700f05dc6b27edadffffffffffffffffffff6001602f6080811015156200031b57fe5b0181905550700e67a5a25da4107fffffffffffffffffff600160306080811015156200034357fe5b0181905550700dcff115b14eedffffffffffffffffffff600160316080811015156200036b57fe5b0181905550700d3e7a392431239fffffffffffffffffff600160326080811015156200039357fe5b0181905550700cb2ff529eb71e4fffffffffffffffffff60016033608081101515620003bb57fe5b0181905550700c2d415c3db974afffffffffffffffffff60016034608081101515620003e357fe5b0181905550700bad03e7d883f69bffffffffffffffffff600160356080811015156200040b57fe5b0181905550700b320d03b2c343d5ffffffffffffffffff600160366080811015156200043357fe5b0181905550700abc25204e02828dffffffffffffffffff600160376080811015156200045b57fe5b0181905550700a4b16f74ee4bb207fffffffffffffffff600160386080811015156200048357fe5b01819055507009deaf736ac1f569ffffffffffffffffff60016039608081101515620004ab57fe5b0181905550700976bd9952c7aa957fffffffffffffffff6001603a608081101515620004d357fe5b01819055507009131271922eaa606fffffffffffffffff6001603b608081101515620004fb57fe5b01819055507008b380f3558668c46fffffffffffffffff6001603c6080811015156200052357fe5b0181905550700857ddf0117efa215bffffffffffffffff6001603d6080811015156200054b57fe5b01819055507007ffffffffffffffffffffffffffffffff6001603e6080811015156200057357fe5b01819055507007abbf6f6abb9d087fffffffffffffffff6001603f6080811015156200059b57fe5b018190555070075af62cbac95f7dfa7fffffffffffffff60016040608081101515620005c357fe5b018190555070070d7fb7452e187ac13fffffffffffffff60016041608081101515620005eb57fe5b01819055507006c3390ecc8af379295fffffffffffffff600160426080811015156200061357fe5b018190555070067c00a3b07ffc01fd6fffffffffffffff600160436080811015156200063b57fe5b0181905550700637b647c39cbb9d3d27ffffffffffffff600160446080811015156200066357fe5b01819055507005f63b1fc104dbd39587ffffffffffffff600160456080811015156200068b57fe5b01819055507005b771955b36e12f7235ffffffffffffff60016046608081101515620006b357fe5b018190555070057b3d49dda84556d6f6ffffffffffffff60016047608081101515620006db57fe5b018190555070054183095b2c8ececf30ffffffffffffff600160486080811015156200070357fe5b018190555070050a28be635ca2b888f77fffffffffffff600160496080811015156200072b57fe5b01819055507004d5156639708c9db33c3fffffffffffff6001604a6080811015156200075357fe5b01819055507004a23105873875bd52dfdfffffffffffff6001604b6080811015156200077b57fe5b0181905550700471649d87199aa990756fffffffffffff6001604c608081101515620007a357fe5b01819055507004429a21a029d4c1457cfbffffffffffff6001604d608081101515620007cb57fe5b0181905550700415bc6d6fb7dd71af2cb3ffffffffffff6001604e608081101515620007f357fe5b01819055507003eab73b3bbfe282243ce1ffffffffffff6001604f6080811015156200081b57fe5b01819055507003c1771ac9fb6b4c18e229ffffffffffff600160506080811015156200084357fe5b0181905550700399e96897690418f785257fffffffffff600160516080811015156200086b57fe5b0181905550700373fc456c53bb779bf0ea9fffffffffff600160526080811015156200089357fe5b018190555070034f9e8e490c48e67e6ab8bfffffffffff60016053608081101515620008bb57fe5b018190555070032cbfd4a7adc790560b3337ffffffffff60016054608081101515620008e357fe5b018190555070030b50570f6e5d2acca94613ffffffffff600160556080811015156200090b57fe5b01819055507002eb40f9f620fda6b56c2861ffffffffff600160566080811015156200093357fe5b01819055507002cc8340ecb0d0f520a6af58ffffffffff600160576080811015156200095b57fe5b01819055507002af09481380a0a35cf1ba02ffffffffff600160586080811015156200098357fe5b0181905550700292c5bdd3b92ec810287b1b3fffffffff60016059608081101515620009ab57fe5b0181905550700277abdcdab07d5a77ac6d6b9fffffffff6001605a608081101515620009d357fe5b018190555070025daf6654b1eaa55fd64df5efffffffff6001605b608081101515620009fb57fe5b0181905550700244c49c648baa98192dce88b7ffffffff6001605c60808110151562000a2357fe5b018190555070022ce03cd5619a311b2471268bffffffff6001605d60808110151562000a4b57fe5b0181905550700215f77c045fbe885654a44a0fffffffff6001605e60808110151562000a7357fe5b01819055507001ffffffffffffffffffffffffffffffff6001605f60808110151562000a9b57fe5b01819055507001eaefdbdaaee7421fc4d3ede5ffffffff6001606060808110151562000ac357fe5b01819055507001d6bd8b2eb257df7e8ca57b09bfffffff6001606160808110151562000aeb57fe5b01819055507001c35fedd14b861eb0443f7f133fffffff6001606260808110151562000b1357fe5b01819055507001b0ce43b322bcde4a56e8ada5afffffff6001606360808110151562000b3b57fe5b018190555070019f0028ec1fff007f5a195a39dfffffff6001606460808110151562000b6357fe5b018190555070018ded91f0e72ee74f49b15ba527ffffff6001606560808110151562000b8b57fe5b018190555070017d8ec7f04136f4e5615fd41a63ffffff6001606660808110151562000bb357fe5b018190555070016ddc6556cdb84bdc8d12d22e6fffffff6001606760808110151562000bdb57fe5b018190555070015ecf52776a1155b5bd8395814f7fffff6001606860808110151562000c0357fe5b018190555070015060c256cb23b3b3cc3754cf40ffffff6001606960808110151562000c2b57fe5b01819055507001428a2f98d728ae223ddab715be3fffff6001606a60808110151562000c5357fe5b018190555070013545598e5c23276ccf0ede68034fffff6001606b60808110151562000c7b57fe5b01819055507001288c4161ce1d6f54b7f61081194fffff6001606c60808110151562000ca357fe5b018190555070011c592761c666aa641d5a01a40f17ffff6001606d60808110151562000ccb57fe5b0181905550700110a688680a7530515f3e6e6cfdcdffff6001606e60808110151562000cf357fe5b01819055507001056f1b5bedf75c6bcb2ce8aed428ffff6001606f60808110151562000d1b57fe5b01819055506ffaadceceeff8a0890f3875f008277fff6001607060808110151562000d4257fe5b01819055506ff05dc6b27edad306388a600f6ba0bfff6001607160808110151562000d6957fe5b01819055506fe67a5a25da41063de1495d5b18cdbfff6001607260808110151562000d9057fe5b01819055506fdcff115b14eedde6fc3aa5353f2e4fff6001607360808110151562000db757fe5b01819055506fd3e7a3924312399f9aae2e0f868f8fff6001607460808110151562000dde57fe5b01819055506fcb2ff529eb71e41582cccd5a1ee26fff6001607560808110151562000e0557fe5b01819055506fc2d415c3db974ab32a51840c0b67edff6001607660808110151562000e2c57fe5b01819055506fbad03e7d883f69ad5b0a186184e06bff6001607760808110151562000e5357fe5b01819055506fb320d03b2c343d4829abd6075f0cc5ff6001607860808110151562000e7a57fe5b01819055506fabc25204e02828d73c6e80bcdb1a95bf6001607960808110151562000ea157fe5b01819055506fa4b16f74ee4bb2040a1ec6c15fbbf2df6001607a60808110151562000ec857fe5b01819055506f9deaf736ac1f569deb1b5ae3f36c130f6001607b60808110151562000eef57fe5b01819055506f976bd9952c7aa957f5937d790ef650376001607c60808110151562000f1657fe5b01819055506f9131271922eaa6064b73a22d0bd4f2bf6001607d60808110151562000f3d57fe5b01819055506f8b380f3558668c46c91c49a2f8e967b96001607e60808110151562000f6457fe5b01819055506f857ddf0117efa215952912839f6473e66001607f60808110151562000f8b57fe5b018190555033608260006101000a81548173ffffffffffffffffffffffffffffffffffffffff021916908373ffffffffffffffffffffffffffffffffffffffff16021790555062001086565b828054600181600116156101000203166002900490600052602060002090601f016020900481019282601f106200101a57805160ff19168380011785556200104b565b828001600101855582156200104b579182015b828111156200104a5782518255916020019190600101906200102d565b5b5090506200105a91906200105e565b5090565b6200108391905b808211156200107f57600081600090555060010162001065565b5090565b90565b61233080620010966000396000f3006080604052600436106100e6576000357c0100000000000000000000000000000000000000000000000000000000900463ffffffff1680630ddeb632146100e85780632150c5181461013b57806329a00e7c146101a757806349f7bf121461020c57806349f9b0f71461025557806354fd4d50146102ba57806355c4fa1e1461034a5780635cc15001146103ff578063715018a6146104a95780638da5cb5b146104c05780639a42299514610517578063b592de3a146105c0578063bdb56da614610613578063e9382d6d1461067c578063f2fde38b146106a7578063fc4e4a2c146106ea575b005b3480156100f457600080fd5b506101216004803603810190808035600019169060200190929190803590602001909291905050506107e8565b604051808215151515815260200191505060405180910390f35b34801561014757600080fd5b50610150610a4f565b6040518080602001828103825283818151815260200191508051906020019060200280838360005b83811015610193578082015181840152602081019050610178565b505050509050019250505060405180910390f35b3480156101b357600080fd5b506101f66004803603810190808035906020019092919080359060200190929190803563ffffffff16906020019092919080359060200190929190505050610aab565b6040518082815260200191505060405180910390f35b34801561021857600080fd5b5061023760048036038101908080359060200190929190505050610bac565b60405180826000191660001916815260200191505060405180910390f35b34801561026157600080fd5b506102a46004803603810190808035906020019092919080359060200190929190803563ffffffff16906020019092919080359060200190929190505050610bcf565b6040518082815260200191505060405180910390f35b3480156102c657600080fd5b506102cf610d03565b6040518080602001828103825283818151815260200191508051906020019080838360005b8381101561030f5780820151818401526020810190506102f4565b50505050905090810190601f16801561033c5780820380516001836020036101000a031916815260200191505b509250505060405180910390f35b34801561035657600080fd5b506103e1600480360381019080803590602001908201803590602001908080601f0160208091040260200160405190810160405280939291908181526020018383808284378201915050505050509192919290803563ffffffff169060200190929190803573ffffffffffffffffffffffffffffffffffffffff169060200190929190505050610da1565b60405180826000191660001916815260200191505060405180910390f35b34801561040b57600080fd5b5061042e6004803603810190808035600019169060200190929190505050610ef1565b6040518080602001828103825283818151815260200191508051906020019080838360005b8381101561046e578082015181840152602081019050610453565b50505050905090810190601f16801561049b5780820380516001836020036101000a031916815260200191505b509250505060405180910390f35b3480156104b557600080fd5b506104be610fb1565b005b3480156104cc57600080fd5b506104d56110b6565b604051808273ffffffffffffffffffffffffffffffffffffffff1673ffffffffffffffffffffffffffffffffffffffff16815260200191505060405180910390f35b34801561052357600080fd5b506105be600480360381019080803590602001908201803590602001908080601f0160208091040260200160405190810160405280939291908181526020018383808284378201915050505050509192919290803563ffffffff169060200190929190803573ffffffffffffffffffffffffffffffffffffffff169060200190929190803563ffffffff1690602001909291905050506110dc565b005b3480156105cc57600080fd5b506105f9600480360381019080803560001916906020019092919080359060200190929190505050611428565b604051808215151515815260200191505060405180910390f35b34801561061f57600080fd5b5061067a600480360381019080803590602001908201803590602001908080601f0160208091040260200160405190810160405280939291908181526020018383808284378201915050505050509192919290505050611799565b005b34801561068857600080fd5b506106916117b3565b6040518082815260200191505060405180910390f35b3480156106b357600080fd5b506106e8600480360381019080803573ffffffffffffffffffffffffffffffffffffffff1690602001909291905050506117c0565b005b3480156106f657600080fd5b506107196004803603810190808035600019169060200190929190505050611828565b60405180806020018663ffffffff1663ffffffff1681526020018581526020018481526020018373ffffffffffffffffffffffffffffffffffffffff1673ffffffffffffffffffffffffffffffffffffffff168152602001828103825287818151815260200191508051906020019080838360005b838110156107a957808201518184015260208101905061078e565b50505050905090810190601f1680156107d65780820380516001836020036101000a031916815260200191505b50965050505050505060405180910390f35b600080600080600085111515610866576040517f08c379a00000000000000000000000000000000000000000000000000000000081526004018080602001828103825260178152602001807f6578706563746564206e6f6e2d7a65726f2076616c756500000000000000000081525060200191505060405180910390fd5b60856000876000191660001916815260200190815260200160002092508260040160009054906101000a900473ffffffffffffffffffffffffffffffffffffffff1691508173ffffffffffffffffffffffffffffffffffffffff166323b872dd3330886040518463ffffffff167c0100000000000000000000000000000000000000000000000000000000028152600401808473ffffffffffffffffffffffffffffffffffffffff1673ffffffffffffffffffffffffffffffffffffffff1681526020018373ffffffffffffffffffffffffffffffffffffffff1673ffffffffffffffffffffffffffffffffffffffff1681526020018281526020019350505050602060405180830381600087803b15801561098157600080fd5b505af1158015610995573d6000803e3d6000fd5b505050506040513d60208110156109ab57600080fd5b81019080805190602001909291905050501515610a30576040517f08c379a00000000000000000000000000000000000000000000000000000000081526004018080602001828103825260208152602001807f206275792829206572633230207472616e7366657246726f6d206661696c656481525060200191505060405180910390fd5b610a406000806207a12088610aab565b90506001935050505092915050565b60606086805480602002602001604051908101604052809291908181526020018280548015610aa157602002820191906000526020600020905b81546000191681526020019060010190808311610a89575b5050505050905090565b60008060008060008089118015610ac25750600088115b8015610ad4575060008763ffffffff16115b8015610aef5750620f424063ffffffff168763ffffffff1611155b1515610afa57600080fd5b6000861415610b0c5760009450610ba0565b620f424063ffffffff168763ffffffff161415610b4f57610b4888610b3a888c61192690919063ffffffff16565b61195e90919063ffffffff16565b9450610ba0565b610b62888761197490919063ffffffff16565b9150610b73828989620f4240611990565b80945081955050508260ff16610b92858b61192690919063ffffffff16565b9060020a9004905088810394505b50505050949350505050565b608681815481101515610bbb57fe5b906000526020600020016000915090505481565b60008060008060008060008a118015610be85750600089115b8015610bfa575060008863ffffffff16115b8015610c155750620f424063ffffffff168863ffffffff1611155b8015610c215750898711155b1515610c2c57600080fd5b6000871415610c3e5760009550610cf6565b89871415610c4e57889550610cf6565b620f424063ffffffff168863ffffffff161415610c9157610c8a8a610c7c898c61192690919063ffffffff16565b61195e90919063ffffffff16565b9550610cf6565b868a039250610ca58a84620f42408b611990565b8095508196505050610cc0858a61192690919063ffffffff16565b91508360ff16899060020a029050610cf385610ce583856119ed90919063ffffffff16565b61195e90919063ffffffff16565b95505b5050505050949350505050565b60818054600181600116156101000203166002900480601f016020809104026020016040519081016040528092919081815260200182805460018160011615610100020316600290048015610d995780601f10610d6e57610100808354040283529160200191610d99565b820191906000526020600020905b815481529060010190602001808311610d7c57829003601f168201915b505050505081565b60008383836040516020018084805190602001908083835b602083101515610dde5780518252602082019150602081019050602083039250610db9565b6001836020036101000a0380198251168184511680821785525050505050509050018363ffffffff1663ffffffff167c01000000000000000000000000000000000000000000000000000000000281526004018273ffffffffffffffffffffffffffffffffffffffff1673ffffffffffffffffffffffffffffffffffffffff166c0100000000000000000000000002815260140193505050506040516020818303038152906040526040518082805190602001908083835b602083101515610ebb5780518252602082019150602081019050602083039250610e96565b6001836020036101000a038019825116818451168082178552505050505050905001915050604051809103902090509392505050565b60606085600083600019166000191681526020019081526020016000206000018054600181600116156101000203166002900480601f016020809104026020016040519081016040528092919081815260200182805460018160011615610100020316600290048015610fa55780601f10610f7a57610100808354040283529160200191610fa5565b820191906000526020600020905b815481529060010190602001808311610f8857829003601f168201915b50505050509050919050565b608260009054906101000a900473ffffffffffffffffffffffffffffffffffffffff1673ffffffffffffffffffffffffffffffffffffffff163373ffffffffffffffffffffffffffffffffffffffff1614151561100d57600080fd5b608260009054906101000a900473ffffffffffffffffffffffffffffffffffffffff1673ffffffffffffffffffffffffffffffffffffffff167ff8df31144d9c2f0f6b59d69b8b98abd5459d07f2742c4df920b25aae33c6482060405160405180910390a26000608260006101000a81548173ffffffffffffffffffffffffffffffffffffffff021916908373ffffffffffffffffffffffffffffffffffffffff160217905550565b608260009054906101000a900473ffffffffffffffffffffffffffffffffffffffff1681565b600073ffffffffffffffffffffffffffffffffffffffff168273ffffffffffffffffffffffffffffffffffffffff16141515156111a7576040517f08c379a000000000000000000000000000000000000000000000000000000000815260040180806020018281038252602f8152602001807f43616e27742073656e6420746f2061646472657373207a65726f202d2061636381526020017f6964656e7469616c206275726e203f000000000000000000000000000000000081525060400191505060405180910390fd5b6111b2848484610da1565b6083816000191690555060a0604051908101604052808581526020018463ffffffff16815260200160008152602001600081526020018373ffffffffffffffffffffffffffffffffffffffff168152506085600060835460001916600019168152602001908152602001600020600082015181600001908051906020019061123b9291906121df565b5060208201518160010160006101000a81548163ffffffff021916908363ffffffff160217905550604082015181600201556060820151816003015560808201518160040160006101000a81548173ffffffffffffffffffffffffffffffffffffffff021916908373ffffffffffffffffffffffffffffffffffffffff160217905550905050608660835490806001815401808255809150509060018203906000526020600020016000909192909190915090600019169055507f04315a5ae3a4f559e553c9d8f419d42d6dae20582a4d4d2da7d03ad4de413bd960835485858585604051808660001916600019168152602001806020018563ffffffff1663ffffffff1681526020018473ffffffffffffffffffffffffffffffffffffffff1673ffffffffffffffffffffffffffffffffffffffff1681526020018363ffffffff1663ffffffff168152602001828103825286818151815260200191508051906020019080838360005b838110156113c15780820151818401526020810190506113a6565b50505050905090810190601f1680156113ee5780820380516001836020036101000a031916815260200191505b50965050505050505060405180910390a160008163ffffffff161115611422576114206083548263ffffffff166107e8565b505b50505050565b600080600080608560008760001916600019168152602001908152602001600020925060008511801561149c5750848360050160003373ffffffffffffffffffffffffffffffffffffffff1673ffffffffffffffffffffffffffffffffffffffff1681526020019081526020016000205410155b1515611510576040517f08c379a000000000000000000000000000000000000000000000000000000000815260040180806020018281038252601b8152602001807f73656c6c20616d6f756e7420657863656465642062616c616e6365000000000081525060200191505060405180910390fd5b611538836003015484600201548560010160009054906101000a900463ffffffff1688610bcf565b91508260040160009054906101000a900473ffffffffffffffffffffffffffffffffffffffff1690508073ffffffffffffffffffffffffffffffffffffffff168130338560405180807f7472616e7366657246726f6d00000000000000000000000000000000000000008152506020018573ffffffffffffffffffffffffffffffffffffffff1673ffffffffffffffffffffffffffffffffffffffff1681526020018473ffffffffffffffffffffffffffffffffffffffff1673ffffffffffffffffffffffffffffffffffffffff1681526020018373ffffffffffffffffffffffffffffffffffffffff1673ffffffffffffffffffffffffffffffffffffffff1681526020018281526020019450505050506000604051808303816000865af1915050151561166657600080fd5b61167d8284600201546119ed90919063ffffffff16565b83600201819055506116d9858460050160003373ffffffffffffffffffffffffffffffffffffffff1673ffffffffffffffffffffffffffffffffffffffff168152602001908152602001600020546119ed90919063ffffffff16565b8360050160003373ffffffffffffffffffffffffffffffffffffffff1673ffffffffffffffffffffffffffffffffffffffff168152602001908152602001600020819055506117358584600301546119ed90919063ffffffff16565b83600301819055507f34a896c7fc8fadcdec95375207701d938b42a5cac922c3c04b7f2a3a04065470868684604051808460001916600019168152602001838152602001828152602001935050505060405180910390a16001935050505092915050565b80608490805190602001906117af92919061225f565b5050565b6000608680549050905090565b608260009054906101000a900473ffffffffffffffffffffffffffffffffffffffff1673ffffffffffffffffffffffffffffffffffffffff163373ffffffffffffffffffffffffffffffffffffffff1614151561181c57600080fd5b61182581611a06565b50565b6085602052806000526040600020600091509050806000018054600181600116156101000203166002900480601f0160208091040260200160405190810160405280929190818152602001828054600181600116156101000203166002900480156118d45780601f106118a9576101008083540402835291602001916118d4565b820191906000526020600020905b8154815290600101906020018083116118b757829003601f168201915b5050505050908060010160009054906101000a900463ffffffff16908060020154908060030154908060040160009054906101000a900473ffffffffffffffffffffffffffffffffffffffff16905085565b6000808314156119395760009050611958565b818302905081838281151561194a57fe5b0414151561195457fe5b8090505b92915050565b6000818381151561196b57fe5b04905092915050565b6000818301905082811015151561198757fe5b80905092915050565b6000806000808463ffffffff168663ffffffff166119ae8a8a611b02565b028115156119b857fe5b0491506119c482611c69565b90506119dd81607f0360ff16839060020a900482611d29565b8193509350505094509492505050565b60008282111515156119fb57fe5b818303905092915050565b600073ffffffffffffffffffffffffffffffffffffffff168173ffffffffffffffffffffffffffffffffffffffff1614151515611a4257600080fd5b8073ffffffffffffffffffffffffffffffffffffffff16608260009054906101000a900473ffffffffffffffffffffffffffffffffffffffff1673ffffffffffffffffffffffffffffffffffffffff167f8be0079c531659141344cd1fd0a4f28419497f9722a3daafe3b4186f6b6457e060405160405180910390a380608260006101000a81548173ffffffffffffffffffffffffffffffffffffffff021916908373ffffffffffffffffffffffffffffffffffffffff16021790555050565b60008060008060007001ffffffffffffffffffffffffffffffff8711151515611b2757fe5b60009350856f800000000000000000000000000000008802811515611b4857fe5b04925070010000000000000000000000000000000083101515611bb157611b896f8000000000000000000000000000000084811515611b8357fe5b0461214d565b91508160ff16839060020a900492506f800000000000000000000000000000008260ff160293505b6f80000000000000000000000000000000831115611c3f57607f90505b60008160ff161115611c3e576f80000000000000000000000000000000838402811515611bf757fe5b04925070010000000000000000000000000000000083101515611c32576001839060020a900492506001810360ff1660019060020a02840193505b80600190039050611bce565b5b607a60ff166f02c5c85fdf473de6af278ece600fcbda85029060020a900494505050505092915050565b60008060008060209250607f91505b8160ff166001840160ff161015611cca57600282840160ff16811515611c9a57fe5b0490508460018260ff16608081101515611cb057fe5b0154101515611cc157809250611cc5565b8091505b611c78565b8460018360ff16608081101515611cdd57fe5b0154101515611cee57819350611d21565b8460018460ff16608081101515611d0157fe5b0154101515611d1257829350611d21565b60001515611d1c57fe5b600093505b505050919050565b6000806000849150600090508360ff168583029060020a900491506f03442c4e6074a82f1797f72ac00000008202810190508360ff168583029060020a900491506f0116b96f757c380fb287fd0e400000008202810190508360ff168583029060020a900491506e45ae5bdd5f0e03eca1ff43900000008202810190508360ff168583029060020a900491506e0defabf91302cd95b9ffda500000008202810190508360ff168583029060020a900491506e02529ca9832b22439efff9b80000008202810190508360ff168583029060020a900491506d54f1cf12bd04e516b6da880000008202810190508360ff168583029060020a900491506d0a9e39e257a09ca2d6db510000008202810190508360ff168583029060020a900491506d012e066e7b839fa050c3090000008202810190508360ff168583029060020a900491506c1e33d7d926c329a1ad1a8000008202810190508360ff168583029060020a900491506c02bee513bdb4a6b19b5f8000008202810190508360ff168583029060020a900491506b3a9316fa79b88eccf2a000008202810190508360ff168583029060020a900491506b048177ebe1fa8123752000008202810190508360ff168583029060020a900491506a5263fe90242dcbacf000008202810190508360ff168583029060020a900491506a057e22099c030d941000008202810190508360ff168583029060020a900491506957e22099c030d94100008202810190508360ff168583029060020a9004915069052b6b545699763100008202810190508360ff168583029060020a90049150684985f67696bf7480008202810190508360ff168583029060020a900491506803dea12ea99e4980008202810190508360ff168583029060020a900491506731880f2214b6e0008202810190508360ff168583029060020a9004915067025bcff56eb360008202810190508360ff168583029060020a90049150661b722e10ab10008202810190508360ff168583029060020a900491506601317c700770008202810190508360ff168583029060020a90049150650cba84aafa008202810190508360ff168583029060020a900491506482573a0a008202810190508360ff168583029060020a900491506405035ad9008202810190508360ff168583029060020a90049150632f881b008202810190508360ff168583029060020a900491506301b293408202810190508360ff168583029060020a90049150620efc408202810190508360ff168583029060020a90049150617fe08202810190508360ff168583029060020a900491506104208202810190508360ff168583029060020a9004915060218202810190508360ff168583029060020a9004915060018202810190508360ff1660019060020a02856f0688589cc0e9505e2f2fee55800000008381151561214057fe5b0401019250505092915050565b60008060008060009250849150610100821015612189575b6001821115612184576001829060020a90049150600183019250612165565b6121d4565b608090505b60008160ff1611156121d3578060ff1660019060020a02821015156121c0578060ff16829060020a9004915080831792505b60018160ff169060020a9004905061218e565b5b829350505050919050565b828054600181600116156101000203166002900490600052602060002090601f016020900481019282601f1061222057805160ff191683800117855561224e565b8280016001018555821561224e579182015b8281111561224d578251825591602001919060010190612232565b5b50905061225b91906122df565b5090565b828054600181600116156101000203166002900490600052602060002090601f016020900481019282601f106122a057805160ff19168380011785556122ce565b828001600101855582156122ce579182015b828111156122cd5782518255916020019190600101906122b2565b5b5090506122db91906122df565b5090565b61230191905b808211156122fd5760008160009055506001016122e5565b5090565b905600a165627a7a7230582054faf8201da564780359a52caeffb91daa9797a2ed3f3d287f430bebd3308fc50029",
  "source": "pragma solidity ^0.4.18;\n\nimport \"zeppelin-solidity/contracts/ownership/Ownable.sol\";\nimport \"zeppelin-solidity/contracts/token/ERC20/ERC20.sol\";\nimport \"./BancorFormula.sol\";\nimport \"./FakeDai.sol\";\n/**\n * @title TcrFactory\n * @dev Factory and repository for creating universal continuous Token Curated Registries staked with ERC20 tokens\n */\ncontract TcrFactory is BancorFormula, Ownable {\n\n  event LogMint(bytes32 hashId, uint256 amountMinted, uint256 totalCost);\n  event LogWithdraw(bytes32 hashId, uint256 amountWithdrawn, uint256 reward);\n  event LogBondingCurve(bytes32 hashId, string logString, uint256 value);\n  event TcrCreated(bytes32 hashId, string content, uint32 ratio, address erc20, uint32 startingBalance);\n\n  struct tcr {\n    string content; // content from UI\n    uint32 reserveRatio; // reserve ratio, represented in ppm, 1-1000000\n    uint256 poolBalance;\n    uint256 totalSharesSupply;\n    address ERC20token;\n    mapping(address => uint) balances; //TODO: is this needed, do we need individual amounts? Perhaps this mapping should be on it's own, not in the struct.\n  }\n\n  bytes32 tcrHash;\n  bytes helloMsg; //TODO: remove me\n\n  // TCR mappings\n  // maps a hash - the key of the tcr (see getHashId)\n  mapping(bytes32 => tcr) public tcrs;\n  bytes32[] public tcrKeys;\n\n  /**\n   * @dev default function\n   * gas ~\n   */\n  function createTCR (string content, uint32 ratio, address erc20, uint32 startingBalance) public {\n    require(erc20 != address(0), \"Can't send to address zero - accidential burn ?\");\n    tcrHash = getHashId(content, ratio, erc20);\n    tcrs[tcrHash] = tcr({content:content, reserveRatio:ratio, poolBalance:0, totalSharesSupply:0, ERC20token:erc20});\n    // tcrKeys.add(tcrHash);\n    tcrKeys.push(tcrHash); //TODO: we should probably just store it on IPFS.\n    emit TcrCreated(tcrHash, content, ratio, erc20, startingBalance);\n\n    if(startingBalance > 0){\n      buy(tcrHash, startingBalance);\n    }\n  }\n\n  /**\n   * @dev default function\n   * gas ~ 91645\n   */\n  function() public payable {\n    // revert(\"Contract can't receive ETH. Use the Buy function.\");\n    // FIXME - revert might be killing everything when transferring erc20\n  }\n\n  /**\n   * @dev Buy tokens for the TCR with hashId\n   * gas ~ 77825\n   * TODO implement maxAmount that helps prevent miner front-running\n   */\n  function buy(bytes32 hashId, uint256 ercBuyAmount) public returns(bool) {\n    require(ercBuyAmount > 0, \"expected non-zero value\");\n\n    tcr storage buyFromTcr = tcrs[hashId];\n\n    address erc20 = buyFromTcr.ERC20token;\n    //const mTransferFrom = \"transferFrom\";\n   require(ERC20(erc20).transferFrom(msg.sender, address(this), ercBuyAmount),\" buy() erc20 transferFrom failed\");\n\n/*\n  contract OtherContract {\n      function otherMethod(address _to, uint _price);\n  }\n\n  contract MyContract {\n      uint public unitPrice = 100;\n\n      function myMethod(address _destination, uint _count) {\n          // _destination is a contract that implements OtherContract\n          OtherContract oc = OtherContract(_destination);\n          // call method from other contract\n          oc.otherMethod(address(this), _count * unitPrice);\n      }\n  }\n*/\n\n   uint256 tokensToMint = calculatePurchaseReturn(0, 0, 500000, ercBuyAmount);\n    //buyFromTcr.totalSharesSupply = buyFromTcr.totalSharesSupply.add(tokensToMint);\n\n    //buyFromTcr.balances[msg.sender] = buyFromTcr.balances[msg.sender].add(tokensToMint);\n    //buyFromTcr.poolBalance = buyFromTcr.poolBalance.add(ercBuyAmount);\n    //emit LogMint(hashId, tokensToMint, ercBuyAmount);\n    return true;\n  }\n\n  /**\n   * @dev Sell tokens\n   * gas ~\n   * @param sellSharesAmount Amount of tokens to withdraw\n   * TODO implement maxAmount that helps prevent miner front-running\n   */\n  function sell(bytes32 hashId, uint256 sellSharesAmount) public returns(bool) {\n\n    tcr storage sellToTcr = tcrs[hashId];\n    require(sellSharesAmount > 0 && sellToTcr.balances[msg.sender] >= sellSharesAmount, \"sell amount exceded balance\");\n\n    uint256 erc20Amount = calculateSaleReturn(sellToTcr.totalSharesSupply, sellToTcr.poolBalance, sellToTcr.reserveRatio, sellSharesAmount);\n    address erc20 = sellToTcr.ERC20token;\n    require(erc20.call(\"transferFrom\", erc20, address(this), msg.sender, erc20Amount));\n\n    sellToTcr.poolBalance = sellToTcr.poolBalance.sub(erc20Amount);\n    sellToTcr.balances[msg.sender] = sellToTcr.balances[msg.sender].sub(sellSharesAmount);\n    sellToTcr.totalSharesSupply = sellToTcr.totalSharesSupply.sub(sellSharesAmount);\n    emit LogWithdraw(hashId, sellSharesAmount, erc20Amount);\n    return true;\n  }\n\n  /**\n    @dev Create a hash from content, reserveRatio and the ERC20 token address\n  */\n  function getHashId(string content, uint32 reserveRatio, address ERC20token) public pure returns (bytes32 hash) {\n    return keccak256(abi.encodePacked(content, reserveRatio, ERC20token));\n  }\n\n  /**\n    @dev Create a hash from content, reserveRatio and the ERC20 token address\n  */\n  function getContent(bytes32 hashId) public view returns (string content) {\n    //TODO: should we convert it here?\n    return tcrs[hashId].content;\n  }\n\n  function getKeys() public view returns (bytes32[]) {\n    return tcrKeys;\n  }\n\n  function getTcrCount() public view returns(uint tcrCount) {\n    return tcrKeys.length;\n  }\n\n  function hello (bytes m) public {\n    helloMsg = m;\n  }\n}\n",
  "sourcePath": "/home/dekan/github/wordup/tcr_factory/contracts/TcrFactory.sol",
  "compiler": {
    "name": "solc",
    "version": "0.4.24+commit.e67f0147.Emscripten.clang"
  },
  "schemaVersion": "2.0.1",
  "updatedAt": "2018-10-12T19:48:46.158Z"
}